{
  "_format": "hh-sol-artifact-1",
  "contractName": "EnergyTrading",
  "sourceName": "contracts/Energy.sol",
  "abi": [
    {
      "inputs": [
        {
          "internalType": "uint256",
          "name": "energy",
          "type": "uint256"
        },
        {
          "internalType": "uint256",
          "name": "carbonCredits",
          "type": "uint256"
        }
      ],
      "name": "addMeter",
      "outputs": [],
      "stateMutability": "nonpayable",
      "type": "function"
    },
    {
      "inputs": [
        {
          "internalType": "uint256",
          "name": "tradeId",
          "type": "uint256"
        }
      ],
      "name": "executeTrade",
      "outputs": [],
      "stateMutability": "nonpayable",
      "type": "function"
    },
    {
      "inputs": [
        {
          "internalType": "uint256",
          "name": "id",
          "type": "uint256"
        }
      ],
      "name": "getMeter",
      "outputs": [
        {
          "internalType": "uint256",
          "name": "",
          "type": "uint256"
        },
        {
          "internalType": "uint256",
          "name": "",
          "type": "uint256"
        },
        {
          "internalType": "uint256",
          "name": "",
          "type": "uint256"
        },
        {
          "internalType": "address",
          "name": "",
          "type": "address"
        }
      ],
      "stateMutability": "view",
      "type": "function"
    },
    {
      "inputs": [],
      "name": "meterCount",
      "outputs": [
        {
          "internalType": "uint256",
          "name": "",
          "type": "uint256"
        }
      ],
      "stateMutability": "view",
      "type": "function"
    },
    {
      "inputs": [
        {
          "internalType": "uint256",
          "name": "",
          "type": "uint256"
        }
      ],
      "name": "meters",
      "outputs": [
        {
          "internalType": "uint256",
          "name": "id",
          "type": "uint256"
        },
        {
          "internalType": "uint256",
          "name": "energy",
          "type": "uint256"
        },
        {
          "internalType": "uint256",
          "name": "carbonCredits",
          "type": "uint256"
        },
        {
          "internalType": "address",
          "name": "owner",
          "type": "address"
        }
      ],
      "stateMutability": "view",
      "type": "function"
    },
    {
      "inputs": [],
      "name": "tradeCount",
      "outputs": [
        {
          "internalType": "uint256",
          "name": "",
          "type": "uint256"
        }
      ],
      "stateMutability": "view",
      "type": "function"
    },
    {
      "inputs": [
        {
          "internalType": "uint256",
          "name": "",
          "type": "uint256"
        }
      ],
      "name": "trades",
      "outputs": [
        {
          "internalType": "uint256",
          "name": "meter1",
          "type": "uint256"
        },
        {
          "internalType": "uint256",
          "name": "meter2",
          "type": "uint256"
        },
        {
          "internalType": "uint256",
          "name": "energy",
          "type": "uint256"
        },
        {
          "internalType": "uint256",
          "name": "costPerKwh",
          "type": "uint256"
        },
        {
          "internalType": "bool",
          "name": "executed",
          "type": "bool"
        }
      ],
      "stateMutability": "view",
      "type": "function"
    },
    {
      "inputs": [
        {
          "internalType": "address",
          "name": "sender",
          "type": "address"
        },
        {
          "internalType": "address",
          "name": "receiver",
          "type": "address"
        },
        {
          "internalType": "uint256",
          "name": "energyAmount",
          "type": "uint256"
        },
        {
          "internalType": "uint256",
          "name": "costPerKwh",
          "type": "uint256"
        },
        {
          "internalType": "uint256",
          "name": "carbonCreditsToAdd",
          "type": "uint256"
        }
      ],
      "name": "transferEnergyAndCarbonCredits",
      "outputs": [],
      "stateMutability": "payable",
      "type": "function"
    },
    {
      "inputs": [
        {
          "internalType": "address",
          "name": "owner",
          "type": "address"
        },
        {
          "internalType": "uint256",
          "name": "energy",
          "type": "uint256"
        },
        {
          "internalType": "uint256",
          "name": "carbonCredits",
          "type": "uint256"
        }
      ],
      "name": "updateMeterEnergyAndCarbonCredits",
      "outputs": [],
      "stateMutability": "nonpayable",
      "type": "function"
    }
  ],
  "bytecode": "0x60806040526000600255600060035534801561001a57600080fd5b5061191f8061002a6000396000f3fe6080604052600436106100865760003560e01c8063bd55022a11610059578063bd55022a14610147578063c0adee2614610172578063c1dc4dbf146101b2578063ee8cfd52146101dd578063f93df2cb1461021d57610086565b806302d2838b1461008b5780631e6c598e146100b4578063abeeca79146100f5578063b2d3d03b1461011e575b600080fd5b34801561009757600080fd5b506100b260048036038101906100ad9190610e6c565b610239565b005b3480156100c057600080fd5b506100db60048036038101906100d69190610e6c565b610456565b6040516100ec959493929190610ec3565b60405180910390f35b34801561010157600080fd5b5061011c60048036038101906101179190610f74565b610499565b005b34801561012a57600080fd5b5061014560048036038101906101409190610fc7565b610584565b005b34801561015357600080fd5b5061015c610655565b6040516101699190611007565b60405180910390f35b34801561017e57600080fd5b5061019960048036038101906101949190610e6c565b61065b565b6040516101a99493929190611031565b60405180910390f35b3480156101be57600080fd5b506101c76106ab565b6040516101d49190611007565b60405180910390f35b3480156101e957600080fd5b5061020460048036038101906101ff9190610e6c565b6106b1565b6040516102149493929190611031565b60405180910390f35b61023760048036038101906102329190611076565b6107b5565b005b60035481111561027e576040517f08c379a00000000000000000000000000000000000000000000000000000000081526004016102759061114e565b60405180910390fd5b6000600160008381526020019081526020016000209050600015158160040160009054906101000a900460ff161515146102ed576040517f08c379a00000000000000000000000000000000000000000000000000000000081526004016102e4906111ba565b60405180910390fd5b6000806000836000015481526020019081526020016000209050600080600084600101548152602001908152602001600020905082600201548260010154101561036c576040517f08c379a00000000000000000000000000000000000000000000000000000000081526004016103639061124c565b60405180910390fd5b8260020154826002015410156103b7576040517f08c379a00000000000000000000000000000000000000000000000000000000081526004016103ae906112de565b60405180910390fd5b82600201548260010160008282546103cf919061132d565b9250508190555082600201548260020160008282546103ee919061132d565b92505081905550826002015481600101600082825461040d9190611361565b92505081905550826002015481600201600082825461042c9190611361565b9250508190555060018360040160006101000a81548160ff02191690831515021790555050505050565b60016020528060005260406000206000915090508060000154908060010154908060020154908060030154908060040160009054906101000a900460ff16905085565b6000600190505b600254811161054357600080600083815260200190815260200160002090508473ffffffffffffffffffffffffffffffffffffffff168160030160009054906101000a900473ffffffffffffffffffffffffffffffffffffffff1673ffffffffffffffffffffffffffffffffffffffff160361052f57838160010181905550828160020181905550505061057f565b50808061053b90611395565b9150506104a0565b506040517f08c379a000000000000000000000000000000000000000000000000000000000815260040161057690611429565b60405180910390fd5b505050565b6002600081548092919061059790611395565b9190505550604051806080016040528060025481526020018381526020018281526020013373ffffffffffffffffffffffffffffffffffffffff16815250600080600254815260200190815260200160002060008201518160000155602082015181600101556040820151816002015560608201518160030160006101000a81548173ffffffffffffffffffffffffffffffffffffffff021916908373ffffffffffffffffffffffffffffffffffffffff1602179055509050505050565b60035481565b60006020528060005260406000206000915090508060000154908060010154908060020154908060030160009054906101000a900473ffffffffffffffffffffffffffffffffffffffff16905084565b60025481565b6000806000806002548511156106fc576040517f08c379a00000000000000000000000000000000000000000000000000000000081526004016106f390611495565b60405180910390fd5b60008060008781526020019081526020016000206040518060800160405290816000820154815260200160018201548152602001600282015481526020016003820160009054906101000a900473ffffffffffffffffffffffffffffffffffffffff1673ffffffffffffffffffffffffffffffffffffffff1673ffffffffffffffffffffffffffffffffffffffff1681525050905080600001518160200151826040015183606001519450945094509450509193509193565b600073ffffffffffffffffffffffffffffffffffffffff168573ffffffffffffffffffffffffffffffffffffffff1603610824576040517f08c379a000000000000000000000000000000000000000000000000000000000815260040161081b90611501565b60405180910390fd5b600073ffffffffffffffffffffffffffffffffffffffff168473ffffffffffffffffffffffffffffffffffffffff1603610893576040517f08c379a000000000000000000000000000000000000000000000000000000000815260040161088a9061156d565b60405180910390fd5b8373ffffffffffffffffffffffffffffffffffffffff168573ffffffffffffffffffffffffffffffffffffffff1603610901576040517f08c379a00000000000000000000000000000000000000000000000000000000081526004016108f8906115d9565b60405180910390fd5b60008311610944576040517f08c379a000000000000000000000000000000000000000000000000000000000815260040161093b90611645565b60405180910390fd5b60008211610987576040517f08c379a000000000000000000000000000000000000000000000000000000000815260040161097e906116b1565b60405180910390fd5b60008110156109cb576040517f08c379a00000000000000000000000000000000000000000000000000000000081526004016109c29061171d565b60405180910390fd5b6000806000600190505b6002548111610ace578773ffffffffffffffffffffffffffffffffffffffff1660008083815260200190815260200160002060030160009054906101000a900473ffffffffffffffffffffffffffffffffffffffff1673ffffffffffffffffffffffffffffffffffffffff1603610a4e57809250610abb565b8673ffffffffffffffffffffffffffffffffffffffff1660008083815260200190815260200160002060030160009054906101000a900473ffffffffffffffffffffffffffffffffffffffff1673ffffffffffffffffffffffffffffffffffffffff1603610aba578091505b5b8080610ac690611395565b9150506109d5565b5060008214158015610ae1575060008114155b610b20576040517f08c379a0000000000000000000000000000000000000000000000000000000008152600401610b1790611789565b60405180910390fd5b60008486610b2e91906117a9565b905080341015610b73576040517f08c379a0000000000000000000000000000000000000000000000000000000008152600401610b6a9061185d565b60405180910390fd5b85600080858152602001908152602001600020600101541015610bcb576040517f08c379a0000000000000000000000000000000000000000000000000000000008152600401610bc2906118c9565b60405180910390fd5b60016000600354815260200190815260200160002060040160009054906101000a900460ff1615610c31576040517f08c379a0000000000000000000000000000000000000000000000000000000008152600401610c28906111ba565b60405180910390fd5b60036000815480929190610c4490611395565b91905055506040518060a00160405280848152602001838152602001878152602001868152602001600015158152506001600060035481526020019081526020016000206000820151816000015560208201518160010155604082015181600201556060820151816003015560808201518160040160006101000a81548160ff021916908315150217905550905050600080600085815260200190815260200160002090506000806000858152602001908152602001600020905085826002016000828254610d139190611361565b925050819055506001806000600354815260200190815260200160002060040160006101000a81548160ff02191690831515021790555087826001016000828254610d5e919061132d565b9250508190555087816001016000828254610d799190611361565b9250508190555060008a905060008a90508073ffffffffffffffffffffffffffffffffffffffff166108fc869081150290604051600060405180830381858888f19350505050158015610dd0573d6000803e3d6000fd5b508173ffffffffffffffffffffffffffffffffffffffff166108fc8634610df7919061132d565b9081150290604051600060405180830381858888f19350505050158015610e22573d6000803e3d6000fd5b50505050505050505050505050565b600080fd5b6000819050919050565b610e4981610e36565b8114610e5457600080fd5b50565b600081359050610e6681610e40565b92915050565b600060208284031215610e8257610e81610e31565b5b6000610e9084828501610e57565b91505092915050565b610ea281610e36565b82525050565b60008115159050919050565b610ebd81610ea8565b82525050565b600060a082019050610ed86000830188610e99565b610ee56020830187610e99565b610ef26040830186610e99565b610eff6060830185610e99565b610f0c6080830184610eb4565b9695505050505050565b600073ffffffffffffffffffffffffffffffffffffffff82169050919050565b6000610f4182610f16565b9050919050565b610f5181610f36565b8114610f5c57600080fd5b50565b600081359050610f6e81610f48565b92915050565b600080600060608486031215610f8d57610f8c610e31565b5b6000610f9b86828701610f5f565b9350506020610fac86828701610e57565b9250506040610fbd86828701610e57565b9150509250925092565b60008060408385031215610fde57610fdd610e31565b5b6000610fec85828601610e57565b9250506020610ffd85828601610e57565b9150509250929050565b600060208201905061101c6000830184610e99565b92915050565b61102b81610f36565b82525050565b60006080820190506110466000830187610e99565b6110536020830186610e99565b6110606040830185610e99565b61106d6060830184611022565b95945050505050565b600080600080600060a0868803121561109257611091610e31565b5b60006110a088828901610f5f565b95505060206110b188828901610f5f565b94505060406110c288828901610e57565b93505060606110d388828901610e57565b92505060806110e488828901610e57565b9150509295509295909350565b600082825260208201905092915050565b7f496e76616c696420747261646520494400000000000000000000000000000000600082015250565b60006111386010836110f1565b915061114382611102565b602082019050919050565b600060208201905081810360008301526111678161112b565b9050919050565b7f547261646520616c726561647920657865637574656400000000000000000000600082015250565b60006111a46016836110f1565b91506111af8261116e565b602082019050919050565b600060208201905081810360008301526111d381611197565b9050919050565b7f4e6f7420656e6f75676820656e6572677920696e206d657465723120746f206560008201527f7865637574652074726164650000000000000000000000000000000000000000602082015250565b6000611236602c836110f1565b9150611241826111da565b604082019050919050565b6000602082019050818103600083015261126581611229565b9050919050565b7f4e6f7420656e6f75676820636172626f6e206372656469747320696e206d657460008201527f65723120746f2065786563757465207472616465000000000000000000000000602082015250565b60006112c86034836110f1565b91506112d38261126c565b604082019050919050565b600060208201905081810360008301526112f7816112bb565b9050919050565b7f4e487b7100000000000000000000000000000000000000000000000000000000600052601160045260246000fd5b600061133882610e36565b915061134383610e36565b925082820390508181111561135b5761135a6112fe565b5b92915050565b600061136c82610e36565b915061137783610e36565b925082820190508082111561138f5761138e6112fe565b5b92915050565b60006113a082610e36565b91507fffffffffffffffffffffffffffffffffffffffffffffffffffffffffffffffff82036113d2576113d16112fe565b5b600182019050919050565b7f4e6f206d6574657220666f756e6420666f72206f776e65722061646472657373600082015250565b60006114136020836110f1565b915061141e826113dd565b602082019050919050565b6000602082019050818103600083015261144281611406565b9050919050565b7f496e76616c6964206d6574657220494400000000000000000000000000000000600082015250565b600061147f6010836110f1565b915061148a82611449565b602082019050919050565b600060208201905081810360008301526114ae81611472565b9050919050565b7f496e76616c69642073656e646572206164647265737300000000000000000000600082015250565b60006114eb6016836110f1565b91506114f6826114b5565b602082019050919050565b6000602082019050818103600083015261151a816114de565b9050919050565b7f496e76616c696420726563656976657220616464726573730000000000000000600082015250565b60006115576018836110f1565b915061156282611521565b602082019050919050565b600060208201905081810360008301526115868161154a565b9050919050565b7f43616e6e6f74207472616e7366657220656e6572677920746f2073656c660000600082015250565b60006115c3601e836110f1565b91506115ce8261158d565b602082019050919050565b600060208201905081810360008301526115f2816115b6565b9050919050565b7f496e76616c696420656e6572677920616d6f756e740000000000000000000000600082015250565b600061162f6015836110f1565b915061163a826115f9565b602082019050919050565b6000602082019050818103600083015261165e81611622565b9050919050565b7f496e76616c696420636f737420706572206b5768000000000000000000000000600082015250565b600061169b6014836110f1565b91506116a682611665565b602082019050919050565b600060208201905081810360008301526116ca8161168e565b9050919050565b7f496e76616c696420636172626f6e206372656469747300000000000000000000600082015250565b60006117076016836110f1565b9150611712826116d1565b602082019050919050565b60006020820190508181036000830152611736816116fa565b9050919050565b7f496e76616c6964206d65746572206f776e657200000000000000000000000000600082015250565b60006117736013836110f1565b915061177e8261173d565b602082019050919050565b600060208201905081810360008301526117a281611766565b9050919050565b60006117b482610e36565b91506117bf83610e36565b92508282026117cd81610e36565b915082820484148315176117e4576117e36112fe565b5b5092915050565b7f496e73756666696369656e74206574686572732073656e7420666f7220656e6560008201527f72677920636f7374000000000000000000000000000000000000000000000000602082015250565b60006118476028836110f1565b9150611852826117eb565b604082019050919050565b600060208201905081810360008301526118768161183a565b9050919050565b7f4e6f7420656e6f75676820656e6572677920746f207472616e73666572000000600082015250565b60006118b3601d836110f1565b91506118be8261187d565b602082019050919050565b600060208201905081810360008301526118e2816118a6565b905091905056fea26469706673582212206edea7a72df87f80a6b363823d3d6697161d7623c284624bfecc4f845a11b01564736f6c63430008120033",
  "linkReferences": {},
  "deployedLinkReferences": {}
}