{
  "_format": "hh-sol-artifact-1",
  "contractName": "EnergyTrading",
  "sourceName": "contracts/Energy.sol",
  "abi": [
    {
      "inputs": [
        {
          "internalType": "uint256",
          "name": "energy",
          "type": "uint256"
        },
        {
          "internalType": "uint256",
          "name": "carbonCredits",
          "type": "uint256"
        }
      ],
      "name": "addMeter",
      "outputs": [],
      "stateMutability": "nonpayable",
      "type": "function"
    },
    {
      "inputs": [
        {
          "internalType": "uint256",
          "name": "tradeId",
          "type": "uint256"
        }
      ],
      "name": "executeTrade",
      "outputs": [],
      "stateMutability": "nonpayable",
      "type": "function"
    },
    {
      "inputs": [
        {
          "internalType": "uint256",
          "name": "id",
          "type": "uint256"
        }
      ],
      "name": "getMeter",
      "outputs": [
        {
          "internalType": "uint256",
          "name": "",
          "type": "uint256"
        },
        {
          "internalType": "uint256",
          "name": "",
          "type": "uint256"
        },
        {
          "internalType": "uint256",
          "name": "",
          "type": "uint256"
        },
        {
          "internalType": "address",
          "name": "",
          "type": "address"
        }
      ],
      "stateMutability": "view",
      "type": "function"
    },
    {
      "inputs": [],
      "name": "meterCount",
      "outputs": [
        {
          "internalType": "uint256",
          "name": "",
          "type": "uint256"
        }
      ],
      "stateMutability": "view",
      "type": "function"
    },
    {
      "inputs": [
        {
          "internalType": "uint256",
          "name": "",
          "type": "uint256"
        }
      ],
      "name": "meters",
      "outputs": [
        {
          "internalType": "uint256",
          "name": "id",
          "type": "uint256"
        },
        {
          "internalType": "uint256",
          "name": "energy",
          "type": "uint256"
        },
        {
          "internalType": "uint256",
          "name": "carbonCredits",
          "type": "uint256"
        },
        {
          "internalType": "address",
          "name": "owner",
          "type": "address"
        }
      ],
      "stateMutability": "view",
      "type": "function"
    },
    {
      "inputs": [],
      "name": "tradeCount",
      "outputs": [
        {
          "internalType": "uint256",
          "name": "",
          "type": "uint256"
        }
      ],
      "stateMutability": "view",
      "type": "function"
    },
    {
      "inputs": [
        {
          "internalType": "uint256",
          "name": "",
          "type": "uint256"
        }
      ],
      "name": "trades",
      "outputs": [
        {
          "internalType": "uint256",
          "name": "meter1",
          "type": "uint256"
        },
        {
          "internalType": "uint256",
          "name": "meter2",
          "type": "uint256"
        },
        {
          "internalType": "uint256",
          "name": "energy",
          "type": "uint256"
        },
        {
          "internalType": "uint256",
          "name": "costPerKwh",
          "type": "uint256"
        },
        {
          "internalType": "bool",
          "name": "executed",
          "type": "bool"
        }
      ],
      "stateMutability": "view",
      "type": "function"
    },
    {
      "inputs": [
        {
          "internalType": "address",
          "name": "sender",
          "type": "address"
        },
        {
          "internalType": "address",
          "name": "receiver",
          "type": "address"
        },
        {
          "internalType": "uint256",
          "name": "energyAmount",
          "type": "uint256"
        },
        {
          "internalType": "uint256",
          "name": "costPerKwh",
          "type": "uint256"
        },
        {
          "internalType": "uint256",
          "name": "carbonCreditsToAdd",
          "type": "uint256"
        }
      ],
      "name": "transferEnergyAndCarbonCredits",
      "outputs": [],
      "stateMutability": "payable",
      "type": "function"
    },
    {
      "inputs": [
        {
          "internalType": "address",
          "name": "owner",
          "type": "address"
        },
        {
          "internalType": "uint256",
          "name": "energy",
          "type": "uint256"
        },
        {
          "internalType": "uint256",
          "name": "carbonCredits",
          "type": "uint256"
        }
      ],
      "name": "updateMeterEnergyAndCarbonCredits",
      "outputs": [],
      "stateMutability": "nonpayable",
      "type": "function"
    }
  ],
  "bytecode": "0x60806040526000600255600060035534801561001a57600080fd5b506118d28061002a6000396000f3fe6080604052600436106100865760003560e01c8063bd55022a11610059578063bd55022a14610147578063c0adee2614610172578063c1dc4dbf146101b2578063ee8cfd52146101dd578063f93df2cb1461021d57610086565b806302d2838b1461008b5780631e6c598e146100b4578063abeeca79146100f5578063b2d3d03b1461011e575b600080fd5b34801561009757600080fd5b506100b260048036038101906100ad9190610e1f565b610239565b005b3480156100c057600080fd5b506100db60048036038101906100d69190610e1f565b610456565b6040516100ec959493929190610e76565b60405180910390f35b34801561010157600080fd5b5061011c60048036038101906101179190610f27565b610499565b005b34801561012a57600080fd5b5061014560048036038101906101409190610f7a565b610584565b005b34801561015357600080fd5b5061015c610655565b6040516101699190610fba565b60405180910390f35b34801561017e57600080fd5b5061019960048036038101906101949190610e1f565b61065b565b6040516101a99493929190610fe4565b60405180910390f35b3480156101be57600080fd5b506101c76106ab565b6040516101d49190610fba565b60405180910390f35b3480156101e957600080fd5b5061020460048036038101906101ff9190610e1f565b6106b1565b6040516102149493929190610fe4565b60405180910390f35b61023760048036038101906102329190611029565b6107b5565b005b60035481111561027e576040517f08c379a000000000000000000000000000000000000000000000000000000000815260040161027590611101565b60405180910390fd5b6000600160008381526020019081526020016000209050600015158160040160009054906101000a900460ff161515146102ed576040517f08c379a00000000000000000000000000000000000000000000000000000000081526004016102e49061116d565b60405180910390fd5b6000806000836000015481526020019081526020016000209050600080600084600101548152602001908152602001600020905082600201548260010154101561036c576040517f08c379a0000000000000000000000000000000000000000000000000000000008152600401610363906111ff565b60405180910390fd5b8260020154826002015410156103b7576040517f08c379a00000000000000000000000000000000000000000000000000000000081526004016103ae90611291565b60405180910390fd5b82600201548260010160008282546103cf91906112e0565b9250508190555082600201548260020160008282546103ee91906112e0565b92505081905550826002015481600101600082825461040d9190611314565b92505081905550826002015481600201600082825461042c9190611314565b9250508190555060018360040160006101000a81548160ff02191690831515021790555050505050565b60016020528060005260406000206000915090508060000154908060010154908060020154908060030154908060040160009054906101000a900460ff16905085565b6000600190505b600254811161054357600080600083815260200190815260200160002090508473ffffffffffffffffffffffffffffffffffffffff168160030160009054906101000a900473ffffffffffffffffffffffffffffffffffffffff1673ffffffffffffffffffffffffffffffffffffffff160361052f57838160010181905550828160020181905550505061057f565b50808061053b90611348565b9150506104a0565b506040517f08c379a0000000000000000000000000000000000000000000000000000000008152600401610576906113dc565b60405180910390fd5b505050565b6002600081548092919061059790611348565b9190505550604051806080016040528060025481526020018381526020018281526020013373ffffffffffffffffffffffffffffffffffffffff16815250600080600254815260200190815260200160002060008201518160000155602082015181600101556040820151816002015560608201518160030160006101000a81548173ffffffffffffffffffffffffffffffffffffffff021916908373ffffffffffffffffffffffffffffffffffffffff1602179055509050505050565b60035481565b60006020528060005260406000206000915090508060000154908060010154908060020154908060030160009054906101000a900473ffffffffffffffffffffffffffffffffffffffff16905084565b60025481565b6000806000806002548511156106fc576040517f08c379a00000000000000000000000000000000000000000000000000000000081526004016106f390611448565b60405180910390fd5b60008060008781526020019081526020016000206040518060800160405290816000820154815260200160018201548152602001600282015481526020016003820160009054906101000a900473ffffffffffffffffffffffffffffffffffffffff1673ffffffffffffffffffffffffffffffffffffffff1673ffffffffffffffffffffffffffffffffffffffff1681525050905080600001518160200151826040015183606001519450945094509450509193509193565b600073ffffffffffffffffffffffffffffffffffffffff168573ffffffffffffffffffffffffffffffffffffffff1603610824576040517f08c379a000000000000000000000000000000000000000000000000000000000815260040161081b906114b4565b60405180910390fd5b600073ffffffffffffffffffffffffffffffffffffffff168473ffffffffffffffffffffffffffffffffffffffff1603610893576040517f08c379a000000000000000000000000000000000000000000000000000000000815260040161088a90611520565b60405180910390fd5b8373ffffffffffffffffffffffffffffffffffffffff168573ffffffffffffffffffffffffffffffffffffffff1603610901576040517f08c379a00000000000000000000000000000000000000000000000000000000081526004016108f89061158c565b60405180910390fd5b60008311610944576040517f08c379a000000000000000000000000000000000000000000000000000000000815260040161093b906115f8565b60405180910390fd5b60008211610987576040517f08c379a000000000000000000000000000000000000000000000000000000000815260040161097e90611664565b60405180910390fd5b60008110156109cb576040517f08c379a00000000000000000000000000000000000000000000000000000000081526004016109c2906116d0565b60405180910390fd5b6000806000600190505b6002548111610ace578773ffffffffffffffffffffffffffffffffffffffff1660008083815260200190815260200160002060030160009054906101000a900473ffffffffffffffffffffffffffffffffffffffff1673ffffffffffffffffffffffffffffffffffffffff1603610a4e57809250610abb565b8673ffffffffffffffffffffffffffffffffffffffff1660008083815260200190815260200160002060030160009054906101000a900473ffffffffffffffffffffffffffffffffffffffff1673ffffffffffffffffffffffffffffffffffffffff1603610aba578091505b5b8080610ac690611348565b9150506109d5565b5060008214158015610ae1575060008114155b610b20576040517f08c379a0000000000000000000000000000000000000000000000000000000008152600401610b179061173c565b60405180910390fd5b60008486610b2e919061175c565b905080341015610b73576040517f08c379a0000000000000000000000000000000000000000000000000000000008152600401610b6a90611810565b60405180910390fd5b85600080858152602001908152602001600020600101541015610bcb576040517f08c379a0000000000000000000000000000000000000000000000000000000008152600401610bc29061187c565b60405180910390fd5b60016000600354815260200190815260200160002060040160009054906101000a900460ff1615610c31576040517f08c379a0000000000000000000000000000000000000000000000000000000008152600401610c289061116d565b60405180910390fd5b60036000815480929190610c4490611348565b91905055506040518060a00160405280848152602001838152602001878152602001868152602001600015158152506001600060035481526020019081526020016000206000820151816000015560208201518160010155604082015181600201556060820151816003015560808201518160040160006101000a81548160ff0219169083151502179055509050506000806000858152602001908152602001600020905084816002016000828254610cfd9190611314565b925050819055506001806000600354815260200190815260200160002060040160006101000a81548160ff021916908315150217905550600089905060008990508073ffffffffffffffffffffffffffffffffffffffff166108fc859081150290604051600060405180830381858888f19350505050158015610d84573d6000803e3d6000fd5b508173ffffffffffffffffffffffffffffffffffffffff166108fc8534610dab91906112e0565b9081150290604051600060405180830381858888f19350505050158015610dd6573d6000803e3d6000fd5b505050505050505050505050565b600080fd5b6000819050919050565b610dfc81610de9565b8114610e0757600080fd5b50565b600081359050610e1981610df3565b92915050565b600060208284031215610e3557610e34610de4565b5b6000610e4384828501610e0a565b91505092915050565b610e5581610de9565b82525050565b60008115159050919050565b610e7081610e5b565b82525050565b600060a082019050610e8b6000830188610e4c565b610e986020830187610e4c565b610ea56040830186610e4c565b610eb26060830185610e4c565b610ebf6080830184610e67565b9695505050505050565b600073ffffffffffffffffffffffffffffffffffffffff82169050919050565b6000610ef482610ec9565b9050919050565b610f0481610ee9565b8114610f0f57600080fd5b50565b600081359050610f2181610efb565b92915050565b600080600060608486031215610f4057610f3f610de4565b5b6000610f4e86828701610f12565b9350506020610f5f86828701610e0a565b9250506040610f7086828701610e0a565b9150509250925092565b60008060408385031215610f9157610f90610de4565b5b6000610f9f85828601610e0a565b9250506020610fb085828601610e0a565b9150509250929050565b6000602082019050610fcf6000830184610e4c565b92915050565b610fde81610ee9565b82525050565b6000608082019050610ff96000830187610e4c565b6110066020830186610e4c565b6110136040830185610e4c565b6110206060830184610fd5565b95945050505050565b600080600080600060a0868803121561104557611044610de4565b5b600061105388828901610f12565b955050602061106488828901610f12565b945050604061107588828901610e0a565b935050606061108688828901610e0a565b925050608061109788828901610e0a565b9150509295509295909350565b600082825260208201905092915050565b7f496e76616c696420747261646520494400000000000000000000000000000000600082015250565b60006110eb6010836110a4565b91506110f6826110b5565b602082019050919050565b6000602082019050818103600083015261111a816110de565b9050919050565b7f547261646520616c726561647920657865637574656400000000000000000000600082015250565b60006111576016836110a4565b915061116282611121565b602082019050919050565b600060208201905081810360008301526111868161114a565b9050919050565b7f4e6f7420656e6f75676820656e6572677920696e206d657465723120746f206560008201527f7865637574652074726164650000000000000000000000000000000000000000602082015250565b60006111e9602c836110a4565b91506111f48261118d565b604082019050919050565b60006020820190508181036000830152611218816111dc565b9050919050565b7f4e6f7420656e6f75676820636172626f6e206372656469747320696e206d657460008201527f65723120746f2065786563757465207472616465000000000000000000000000602082015250565b600061127b6034836110a4565b91506112868261121f565b604082019050919050565b600060208201905081810360008301526112aa8161126e565b9050919050565b7f4e487b7100000000000000000000000000000000000000000000000000000000600052601160045260246000fd5b60006112eb82610de9565b91506112f683610de9565b925082820390508181111561130e5761130d6112b1565b5b92915050565b600061131f82610de9565b915061132a83610de9565b9250828201905080821115611342576113416112b1565b5b92915050565b600061135382610de9565b91507fffffffffffffffffffffffffffffffffffffffffffffffffffffffffffffffff8203611385576113846112b1565b5b600182019050919050565b7f4e6f206d6574657220666f756e6420666f72206f776e65722061646472657373600082015250565b60006113c66020836110a4565b91506113d182611390565b602082019050919050565b600060208201905081810360008301526113f5816113b9565b9050919050565b7f496e76616c6964206d6574657220494400000000000000000000000000000000600082015250565b60006114326010836110a4565b915061143d826113fc565b602082019050919050565b6000602082019050818103600083015261146181611425565b9050919050565b7f496e76616c69642073656e646572206164647265737300000000000000000000600082015250565b600061149e6016836110a4565b91506114a982611468565b602082019050919050565b600060208201905081810360008301526114cd81611491565b9050919050565b7f496e76616c696420726563656976657220616464726573730000000000000000600082015250565b600061150a6018836110a4565b9150611515826114d4565b602082019050919050565b60006020820190508181036000830152611539816114fd565b9050919050565b7f43616e6e6f74207472616e7366657220656e6572677920746f2073656c660000600082015250565b6000611576601e836110a4565b915061158182611540565b602082019050919050565b600060208201905081810360008301526115a581611569565b9050919050565b7f496e76616c696420656e6572677920616d6f756e740000000000000000000000600082015250565b60006115e26015836110a4565b91506115ed826115ac565b602082019050919050565b60006020820190508181036000830152611611816115d5565b9050919050565b7f496e76616c696420636f737420706572206b5768000000000000000000000000600082015250565b600061164e6014836110a4565b915061165982611618565b602082019050919050565b6000602082019050818103600083015261167d81611641565b9050919050565b7f496e76616c696420636172626f6e206372656469747300000000000000000000600082015250565b60006116ba6016836110a4565b91506116c582611684565b602082019050919050565b600060208201905081810360008301526116e9816116ad565b9050919050565b7f496e76616c6964206d65746572206f776e657200000000000000000000000000600082015250565b60006117266013836110a4565b9150611731826116f0565b602082019050919050565b6000602082019050818103600083015261175581611719565b9050919050565b600061176782610de9565b915061177283610de9565b925082820261178081610de9565b91508282048414831517611797576117966112b1565b5b5092915050565b7f496e73756666696369656e74206574686572732073656e7420666f7220656e6560008201527f72677920636f7374000000000000000000000000000000000000000000000000602082015250565b60006117fa6028836110a4565b91506118058261179e565b604082019050919050565b60006020820190508181036000830152611829816117ed565b9050919050565b7f4e6f7420656e6f75676820656e6572677920746f207472616e73666572000000600082015250565b6000611866601d836110a4565b915061187182611830565b602082019050919050565b6000602082019050818103600083015261189581611859565b905091905056fea26469706673582212207735c05938737f11345ada3cae48be13c42bd5c4032bdf5f3f0a9ec7775b4c3964736f6c63430008120033",
  "linkReferences": {},
  "deployedLinkReferences": {}
}